{
  "_format": "hh-sol-artifact-1",
  "contractName": "WillAccount",
  "sourceName": "contracts/will/WillAccount.sol",
  "abi": [
    {
      "inputs": [
        {
          "internalType": "contract IEntryPoint",
          "name": "anEntryPoint",
          "type": "address"
        }
      ],
      "stateMutability": "nonpayable",
      "type": "constructor"
    },
    {
      "anonymous": false,
      "inputs": [
        {
          "indexed": false,
          "internalType": "address",
          "name": "previousAdmin",
          "type": "address"
        },
        {
          "indexed": false,
          "internalType": "address",
          "name": "newAdmin",
          "type": "address"
        }
      ],
      "name": "AdminChanged",
      "type": "event"
    },
    {
      "anonymous": false,
      "inputs": [
        {
          "indexed": true,
          "internalType": "address",
          "name": "asset",
          "type": "address"
        },
        {
          "indexed": false,
          "internalType": "address[]",
          "name": "beneficiaries",
          "type": "address[]"
        },
        {
          "indexed": false,
          "internalType": "uint256[]",
          "name": "percentages",
          "type": "uint256[]"
        }
      ],
      "name": "AllocationSet",
      "type": "event"
    },
    {
      "anonymous": false,
      "inputs": [
        {
          "indexed": true,
          "internalType": "address",
          "name": "beacon",
          "type": "address"
        }
      ],
      "name": "BeaconUpgraded",
      "type": "event"
    },
    {
      "anonymous": false,
      "inputs": [
        {
          "indexed": false,
          "internalType": "address",
          "name": "validator",
          "type": "address"
        },
        {
          "indexed": false,
          "internalType": "bool",
          "name": "acknowledged",
          "type": "bool"
        }
      ],
      "name": "DeathAcknowledged",
      "type": "event"
    },
    {
      "anonymous": false,
      "inputs": [
        {
          "indexed": false,
          "internalType": "address[]",
          "name": "validators",
          "type": "address[]"
        },
        {
          "indexed": false,
          "internalType": "uint256",
          "name": "votingThreshold",
          "type": "uint256"
        }
      ],
      "name": "DeathValidatorsSet",
      "type": "event"
    },
    {
      "anonymous": false,
      "inputs": [
        {
          "indexed": false,
          "internalType": "uint8",
          "name": "version",
          "type": "uint8"
        }
      ],
      "name": "Initialized",
      "type": "event"
    },
    {
      "anonymous": false,
      "inputs": [
        {
          "indexed": true,
          "internalType": "contract IEntryPoint",
          "name": "entryPoint",
          "type": "address"
        },
        {
          "indexed": true,
          "internalType": "address",
          "name": "owner",
          "type": "address"
        }
      ],
      "name": "SimpleAccountInitialized",
      "type": "event"
    },
    {
      "anonymous": false,
      "inputs": [
        {
          "indexed": true,
          "internalType": "address",
          "name": "assetAddr",
          "type": "address"
        },
        {
          "indexed": true,
          "internalType": "address",
          "name": "beneficiary",
          "type": "address"
        },
        {
          "indexed": false,
          "internalType": "uint256",
          "name": "percentage",
          "type": "uint256"
        }
      ],
      "name": "TransferFailed",
      "type": "event"
    },
    {
      "anonymous": false,
      "inputs": [
        {
          "indexed": true,
          "internalType": "address",
          "name": "implementation",
          "type": "address"
        }
      ],
      "name": "Upgraded",
      "type": "event"
    },
    {
      "anonymous": false,
      "inputs": [],
      "name": "WillExecuted",
      "type": "event"
    },
    {
      "inputs": [
        {
          "internalType": "bool",
          "name": "ack",
          "type": "bool"
        }
      ],
      "name": "ackDeath",
      "outputs": [],
      "stateMutability": "nonpayable",
      "type": "function"
    },
    {
      "inputs": [],
      "name": "addDeposit",
      "outputs": [],
      "stateMutability": "payable",
      "type": "function"
    },
    {
      "inputs": [],
      "name": "checkDeath",
      "outputs": [
        {
          "internalType": "bool",
          "name": "",
          "type": "bool"
        }
      ],
      "stateMutability": "view",
      "type": "function"
    },
    {
      "inputs": [],
      "name": "entryPoint",
      "outputs": [
        {
          "internalType": "contract IEntryPoint",
          "name": "",
          "type": "address"
        }
      ],
      "stateMutability": "view",
      "type": "function"
    },
    {
      "inputs": [
        {
          "internalType": "address",
          "name": "dest",
          "type": "address"
        },
        {
          "internalType": "uint256",
          "name": "value",
          "type": "uint256"
        },
        {
          "internalType": "bytes",
          "name": "func",
          "type": "bytes"
        }
      ],
      "name": "execute",
      "outputs": [],
      "stateMutability": "nonpayable",
      "type": "function"
    },
    {
      "inputs": [
        {
          "internalType": "address[]",
          "name": "dest",
          "type": "address[]"
        },
        {
          "internalType": "bytes[]",
          "name": "func",
          "type": "bytes[]"
        }
      ],
      "name": "executeBatch",
      "outputs": [],
      "stateMutability": "nonpayable",
      "type": "function"
    },
    {
      "inputs": [
        {
          "internalType": "address",
          "name": "asset",
          "type": "address"
        }
      ],
      "name": "getAllocation",
      "outputs": [
        {
          "components": [
            {
              "internalType": "address[]",
              "name": "beneficiaries",
              "type": "address[]"
            },
            {
              "internalType": "uint256[]",
              "name": "percentages",
              "type": "uint256[]"
            }
          ],
          "internalType": "struct StructsLibrary.Allocation",
          "name": "allocation",
          "type": "tuple"
        }
      ],
      "stateMutability": "view",
      "type": "function"
    },
    {
      "inputs": [],
      "name": "getAllocationAssets",
      "outputs": [
        {
          "internalType": "address[]",
          "name": "assets",
          "type": "address[]"
        }
      ],
      "stateMutability": "view",
      "type": "function"
    },
    {
      "inputs": [],
      "name": "getDeposit",
      "outputs": [
        {
          "internalType": "uint256",
          "name": "",
          "type": "uint256"
        }
      ],
      "stateMutability": "view",
      "type": "function"
    },
    {
      "inputs": [],
      "name": "getValidators",
      "outputs": [
        {
          "internalType": "address[]",
          "name": "validators",
          "type": "address[]"
        }
      ],
      "stateMutability": "view",
      "type": "function"
    },
    {
      "inputs": [],
      "name": "getVotingThreshold",
      "outputs": [
        {
          "internalType": "uint256",
          "name": "",
          "type": "uint256"
        }
      ],
      "stateMutability": "view",
      "type": "function"
    },
    {
      "inputs": [],
      "name": "getWillStatus",
      "outputs": [
        {
          "internalType": "bool",
          "name": "",
          "type": "bool"
        }
      ],
      "stateMutability": "view",
      "type": "function"
    },
    {
      "inputs": [
        {
          "internalType": "address",
          "name": "anOwner",
          "type": "address"
        }
      ],
      "name": "initialize",
      "outputs": [],
      "stateMutability": "nonpayable",
      "type": "function"
    },
    {
      "inputs": [],
      "name": "nonce",
      "outputs": [
        {
          "internalType": "uint256",
          "name": "",
          "type": "uint256"
        }
      ],
      "stateMutability": "view",
      "type": "function"
    },
    {
      "inputs": [
        {
          "internalType": "address",
          "name": "",
          "type": "address"
        },
        {
          "internalType": "address",
          "name": "",
          "type": "address"
        },
        {
          "internalType": "uint256[]",
          "name": "",
          "type": "uint256[]"
        },
        {
          "internalType": "uint256[]",
          "name": "",
          "type": "uint256[]"
        },
        {
          "internalType": "bytes",
          "name": "",
          "type": "bytes"
        }
      ],
      "name": "onERC1155BatchReceived",
      "outputs": [
        {
          "internalType": "bytes4",
          "name": "",
          "type": "bytes4"
        }
      ],
      "stateMutability": "pure",
      "type": "function"
    },
    {
      "inputs": [
        {
          "internalType": "address",
          "name": "",
          "type": "address"
        },
        {
          "internalType": "address",
          "name": "",
          "type": "address"
        },
        {
          "internalType": "uint256",
          "name": "",
          "type": "uint256"
        },
        {
          "internalType": "uint256",
          "name": "",
          "type": "uint256"
        },
        {
          "internalType": "bytes",
          "name": "",
          "type": "bytes"
        }
      ],
      "name": "onERC1155Received",
      "outputs": [
        {
          "internalType": "bytes4",
          "name": "",
          "type": "bytes4"
        }
      ],
      "stateMutability": "pure",
      "type": "function"
    },
    {
      "inputs": [
        {
          "internalType": "address",
          "name": "",
          "type": "address"
        },
        {
          "internalType": "address",
          "name": "",
          "type": "address"
        },
        {
          "internalType": "uint256",
          "name": "",
          "type": "uint256"
        },
        {
          "internalType": "bytes",
          "name": "",
          "type": "bytes"
        }
      ],
      "name": "onERC721Received",
      "outputs": [
        {
          "internalType": "bytes4",
          "name": "",
          "type": "bytes4"
        }
      ],
      "stateMutability": "pure",
      "type": "function"
    },
    {
      "inputs": [],
      "name": "owner",
      "outputs": [
        {
          "internalType": "address",
          "name": "",
          "type": "address"
        }
      ],
      "stateMutability": "view",
      "type": "function"
    },
    {
      "inputs": [],
      "name": "proxiableUUID",
      "outputs": [
        {
          "internalType": "bytes32",
          "name": "",
          "type": "bytes32"
        }
      ],
      "stateMutability": "view",
      "type": "function"
    },
    {
      "inputs": [
        {
          "internalType": "address",
          "name": "asset",
          "type": "address"
        },
        {
          "internalType": "address[]",
          "name": "beneficiaries",
          "type": "address[]"
        },
        {
          "internalType": "uint256[]",
          "name": "percentages",
          "type": "uint256[]"
        }
      ],
      "name": "setAllocation",
      "outputs": [],
      "stateMutability": "nonpayable",
      "type": "function"
    },
    {
      "inputs": [
        {
          "internalType": "address[]",
          "name": "validators",
          "type": "address[]"
        },
        {
          "internalType": "uint256",
          "name": "votingThreshold",
          "type": "uint256"
        }
      ],
      "name": "setDeathValidators",
      "outputs": [],
      "stateMutability": "nonpayable",
      "type": "function"
    },
    {
      "inputs": [
        {
          "internalType": "bytes4",
          "name": "interfaceId",
          "type": "bytes4"
        }
      ],
      "name": "supportsInterface",
      "outputs": [
        {
          "internalType": "bool",
          "name": "",
          "type": "bool"
        }
      ],
      "stateMutability": "view",
      "type": "function"
    },
    {
      "inputs": [
        {
          "internalType": "address",
          "name": "",
          "type": "address"
        },
        {
          "internalType": "address",
          "name": "",
          "type": "address"
        },
        {
          "internalType": "address",
          "name": "",
          "type": "address"
        },
        {
          "internalType": "uint256",
          "name": "",
          "type": "uint256"
        },
        {
          "internalType": "bytes",
          "name": "",
          "type": "bytes"
        },
        {
          "internalType": "bytes",
          "name": "",
          "type": "bytes"
        }
      ],
      "name": "tokensReceived",
      "outputs": [],
      "stateMutability": "pure",
      "type": "function"
    },
    {
      "inputs": [
        {
          "internalType": "address",
          "name": "newImplementation",
          "type": "address"
        }
      ],
      "name": "upgradeTo",
      "outputs": [],
      "stateMutability": "nonpayable",
      "type": "function"
    },
    {
      "inputs": [
        {
          "internalType": "address",
          "name": "newImplementation",
          "type": "address"
        },
        {
          "internalType": "bytes",
          "name": "data",
          "type": "bytes"
        }
      ],
      "name": "upgradeToAndCall",
      "outputs": [],
      "stateMutability": "payable",
      "type": "function"
    },
    {
      "inputs": [
        {
          "components": [
            {
              "internalType": "address",
              "name": "sender",
              "type": "address"
            },
            {
              "internalType": "uint256",
              "name": "nonce",
              "type": "uint256"
            },
            {
              "internalType": "bytes",
              "name": "initCode",
              "type": "bytes"
            },
            {
              "internalType": "bytes",
              "name": "callData",
              "type": "bytes"
            },
            {
              "internalType": "uint256",
              "name": "callGasLimit",
              "type": "uint256"
            },
            {
              "internalType": "uint256",
              "name": "verificationGasLimit",
              "type": "uint256"
            },
            {
              "internalType": "uint256",
              "name": "preVerificationGas",
              "type": "uint256"
            },
            {
              "internalType": "uint256",
              "name": "maxFeePerGas",
              "type": "uint256"
            },
            {
              "internalType": "uint256",
              "name": "maxPriorityFeePerGas",
              "type": "uint256"
            },
            {
              "internalType": "bytes",
              "name": "paymasterAndData",
              "type": "bytes"
            },
            {
              "internalType": "bytes",
              "name": "signature",
              "type": "bytes"
            }
          ],
          "internalType": "struct UserOperation",
          "name": "userOp",
          "type": "tuple"
        },
        {
          "internalType": "bytes32",
          "name": "userOpHash",
          "type": "bytes32"
        },
        {
          "internalType": "uint256",
          "name": "missingAccountFunds",
          "type": "uint256"
        }
      ],
      "name": "validateUserOp",
      "outputs": [
        {
          "internalType": "uint256",
          "name": "validationData",
          "type": "uint256"
        }
      ],
      "stateMutability": "nonpayable",
      "type": "function"
    },
    {
      "inputs": [
        {
          "internalType": "address payable",
          "name": "withdrawAddress",
          "type": "address"
        },
        {
          "internalType": "uint256",
          "name": "amount",
          "type": "uint256"
        }
      ],
      "name": "withdrawDepositTo",
      "outputs": [],
      "stateMutability": "nonpayable",
      "type": "function"
    },
    {
      "stateMutability": "payable",
      "type": "receive"
    }
  ],
  "bytecode": "0x60c0604052306080523480156200001557600080fd5b50604051620038b2380380620038b283398101604081905262000038916200011a565b6001600160a01b03811660a052806200005062000058565b50506200014c565b600054610100900460ff1615620000c55760405162461bcd60e51b815260206004820152602760248201527f496e697469616c697a61626c653a20636f6e747261637420697320696e697469604482015266616c697a696e6760c81b606482015260840160405180910390fd5b60005460ff908116101562000118576000805460ff191660ff9081179091556040519081527f7f26b83ff96e1f2b6a682f133852f6798a09c465da95921460cefb38474024989060200160405180910390a15b565b6000602082840312156200012d57600080fd5b81516001600160a01b03811681146200014557600080fd5b9392505050565b60805160a0516136fa620001b86000396000818161049901528181610ce801528181610d8f015281816115930152818161180301528181611cf80152612154015260008181610ab301528181610b6301528181610e5301528181610f03015261104c01526136fa6000f3fe6080604052600436106101af5760003560e01c806352d1902d116100ec578063b7ab4db51161008a578063c4d66de811610064578063c4d66de81461055c578063ee30d3751461057c578063f23a6e6114610591578063f2622937146105d757600080fd5b8063b7ab4db5146104dd578063bc197c81146104ff578063c399ec881461054757600080fd5b8063ab818d56116100c6578063ab818d5614610447578063affed0e014610467578063b0d691fe1461048a578063b61d27f6146104bd57600080fd5b806352d1902d146103b85780638da5cb5b146103cd5780638fc4c35e1461042f57600080fd5b806318dfb3c7116101595780633d7e4e30116101335780633d7e4e30146103685780634a58db191461037d5780634d44560d146103855780634f1ef286146103a557600080fd5b806318dfb3c7146102fa5780633659cfe61461031a5780633a871cdd1461033a57600080fd5b80630e0229231161018a5780630e02292314610237578063150b7a0214610264578063150c60a7146102da57600080fd5b806223de29146101bb57806301ffc9a7146101e257806307e312a41461021757600080fd5b366101b657005b600080fd5b3480156101c757600080fd5b506101e06101d6366004612bd2565b5050505050505050565b005b3480156101ee57600080fd5b506102026101fd366004612c83565b6105ec565b60405190151581526020015b60405180910390f35b34801561022357600080fd5b506101e0610232366004612d0a565b6106d1565b34801561024357600080fd5b50610257610252366004612d8d565b610797565b60405161020e9190612daa565b34801561027057600080fd5b506102a961027f366004612e73565b7f150b7a020000000000000000000000000000000000000000000000000000000095945050505050565b6040517fffffffff00000000000000000000000000000000000000000000000000000000909116815260200161020e565b3480156102e657600080fd5b506101e06102f5366004612ed5565b61089a565b34801561030657600080fd5b506101e0610315366004612f21565b610978565b34801561032657600080fd5b506101e0610335366004612d8d565b610a9c565b34801561034657600080fd5b5061035a610355366004612f8d565b610ca1565b60405190815260200161020e565b34801561037457600080fd5b50600b5461035a565b6101e0610ce6565b34801561039157600080fd5b506101e06103a0366004612fe1565b610d85565b6101e06103b336600461303c565b610e3c565b3480156103c457600080fd5b5061035a611032565b3480156103d957600080fd5b5060015461040a906c01000000000000000000000000900473ffffffffffffffffffffffffffffffffffffffff1681565b60405173ffffffffffffffffffffffffffffffffffffffff909116815260200161020e565b34801561043b57600080fd5b5060055460ff16610202565b34801561045357600080fd5b506101e061046236600461312c565b61111e565b34801561047357600080fd5b506001546bffffffffffffffffffffffff1661035a565b34801561049657600080fd5b507f000000000000000000000000000000000000000000000000000000000000000061040a565b3480156104c957600080fd5b506101e06104d8366004613149565b61152f565b3480156104e957600080fd5b506104f261157e565b60405161020e9190613199565b34801561050b57600080fd5b506102a961051a3660046131e7565b7fbc197c810000000000000000000000000000000000000000000000000000000098975050505050505050565b34801561055357600080fd5b5061035a61158f565b34801561056857600080fd5b506101e0610577366004612d8d565b611642565b34801561058857600080fd5b506104f26117d5565b34801561059d57600080fd5b506102a96105ac366004613285565b7ff23a6e61000000000000000000000000000000000000000000000000000000009695505050505050565b3480156105e357600080fd5b506102026117e1565b60007fffffffff0000000000000000000000000000000000000000000000000000000082167f150b7a0200000000000000000000000000000000000000000000000000000000148061067f57507fffffffff0000000000000000000000000000000000000000000000000000000082167f4e2312e000000000000000000000000000000000000000000000000000000000145b806106cb57507fffffffff0000000000000000000000000000000000000000000000000000000082167f01ffc9a700000000000000000000000000000000000000000000000000000000145b92915050565b6106d96117eb565b6106e5848484846118be565b73ffffffffffffffffffffffffffffffffffffffff8516600090815260026020526040812080549091036107205761071e6003876119fc565b505b61072b818686612a96565b5061073a600182018484612b1e565b508573ffffffffffffffffffffffffffffffffffffffff167f44691637591243626b816a71d412fced184ab331ad6d656866ee3b35694b4709868686866040516107879493929190613357565b60405180910390a2505050505050565b6040805180820182526060808252602080830182905273ffffffffffffffffffffffffffffffffffffffff85166000908152600282528490208451815492830281018401865294850182815293949390928492849184018282801561083257602002820191906000526020600020905b815473ffffffffffffffffffffffffffffffffffffffff168152600190910190602001808311610807575b505050505081526020016001820180548060200260200160405190810160405280929190818152602001828054801561088a57602002820191906000526020600020905b815481526020019060010190808311610876575b5050505050815250509050919050565b6108a26117eb565b60006108ae6008611a1e565b90506006815b80156108e1576108ce6108c78383611a29565b8390611a35565b50806108d9816133f1565b9150506108b4565b5060005b8481101561092f5761091e86868381811061090257610902613426565b90506020020160208101906109179190612d8d565b83906119fc565b5061092881613455565b90506108e5565b50600b8390556040517f79491089f3b5d2825d5dbb14259c42d06b183fa5c8c6ea8f88e4e3e0be587377906109699087908790879061348d565b60405180910390a15050505050565b6109806117eb565b8281146109ee576040517f08c379a000000000000000000000000000000000000000000000000000000000815260206004820152601360248201527f77726f6e67206172726179206c656e677468730000000000000000000000000060448201526064015b60405180910390fd5b60005b83811015610a9557610a83858583818110610a0e57610a0e613426565b9050602002016020810190610a239190612d8d565b6000858585818110610a3757610a37613426565b9050602002810190610a4991906134b1565b8080601f016020809104026020016040519081016040528093929190818152602001838380828437600092019190915250611a5792505050565b80610a8d81613455565b9150506109f1565b5050505050565b73ffffffffffffffffffffffffffffffffffffffff7f0000000000000000000000000000000000000000000000000000000000000000163003610b61576040517f08c379a000000000000000000000000000000000000000000000000000000000815260206004820152602c60248201527f46756e6374696f6e206d7573742062652063616c6c6564207468726f7567682060448201527f64656c656761746563616c6c000000000000000000000000000000000000000060648201526084016109e5565b7f000000000000000000000000000000000000000000000000000000000000000073ffffffffffffffffffffffffffffffffffffffff16610bd67f360894a13ba1a3210667c828492db98dca3e2076cc3735a920a3ca505d382bbc5473ffffffffffffffffffffffffffffffffffffffff1690565b73ffffffffffffffffffffffffffffffffffffffff1614610c79576040517f08c379a000000000000000000000000000000000000000000000000000000000815260206004820152602c60248201527f46756e6374696f6e206d7573742062652063616c6c6564207468726f7567682060448201527f6163746976652070726f7879000000000000000000000000000000000000000060648201526084016109e5565b610c8281611ad4565b60408051600080825260208201909252610c9e91839190611adc565b50565b6000610cab611ce0565b610cb58484611d7f565b9050610cc460408501856134b1565b9050600003610cd657610cd684611e6f565b610cdf82611f38565b9392505050565b7f00000000000000000000000000000000000000000000000000000000000000006040517fb760faf900000000000000000000000000000000000000000000000000000000815230600482015273ffffffffffffffffffffffffffffffffffffffff919091169063b760faf99034906024016000604051808303818588803b158015610d7157600080fd5b505af1158015610a95573d6000803e3d6000fd5b610d8d611fa3565b7f00000000000000000000000000000000000000000000000000000000000000006040517f205c287800000000000000000000000000000000000000000000000000000000815273ffffffffffffffffffffffffffffffffffffffff848116600483015260248201849052919091169063205c287890604401600060405180830381600087803b158015610e2057600080fd5b505af1158015610e34573d6000803e3d6000fd5b505050505050565b73ffffffffffffffffffffffffffffffffffffffff7f0000000000000000000000000000000000000000000000000000000000000000163003610f01576040517f08c379a000000000000000000000000000000000000000000000000000000000815260206004820152602c60248201527f46756e6374696f6e206d7573742062652063616c6c6564207468726f7567682060448201527f64656c656761746563616c6c000000000000000000000000000000000000000060648201526084016109e5565b7f000000000000000000000000000000000000000000000000000000000000000073ffffffffffffffffffffffffffffffffffffffff16610f767f360894a13ba1a3210667c828492db98dca3e2076cc3735a920a3ca505d382bbc5473ffffffffffffffffffffffffffffffffffffffff1690565b73ffffffffffffffffffffffffffffffffffffffff1614611019576040517f08c379a000000000000000000000000000000000000000000000000000000000815260206004820152602c60248201527f46756e6374696f6e206d7573742062652063616c6c6564207468726f7567682060448201527f6163746976652070726f7879000000000000000000000000000000000000000060648201526084016109e5565b61102282611ad4565b61102e82826001611adc565b5050565b60003073ffffffffffffffffffffffffffffffffffffffff7f000000000000000000000000000000000000000000000000000000000000000016146110f9576040517f08c379a000000000000000000000000000000000000000000000000000000000815260206004820152603860248201527f555550535570677261646561626c653a206d757374206e6f742062652063616c60448201527f6c6564207468726f7567682064656c656761746563616c6c000000000000000060648201526084016109e5565b507f360894a13ba1a3210667c828492db98dca3e2076cc3735a920a3ca505d382bbc90565b61112960063361203e565b61113257600080fd5b801561118457611145600833600161206d565b5060408051338152600160208201527f12c6ac3865627ad468b3006a3012606b6111cb57eb968f9d7f270346e8e6de05910160405180910390a16111cc565b611191600833600061206d565b5060408051338152600060208201527f12c6ac3865627ad468b3006a3012606b6111cb57eb968f9d7f270346e8e6de05910160405180910390a15b6111d4612098565b15610c9e5760005b6111e660036120f1565b8110156115025760006111fa600383611a29565b73ffffffffffffffffffffffffffffffffffffffff811660009081526002602090815260408083208054825181850281018501909352808352949550929390929183018282801561128157602002820191906000526020600020905b815473ffffffffffffffffffffffffffffffffffffffff168152600190910190602001808311611256575b5050505073ffffffffffffffffffffffffffffffffffffffff8416600090815260026020908152604080832060010180548251818502810185019093528083529596509294909350908301828280156112f957602002820191906000526020600020905b8154815260200190600101908083116112e5575b5050505050905060005b82518110156114eb578373ffffffffffffffffffffffffffffffffffffffff166323b872dd6001600c9054906101000a900473ffffffffffffffffffffffffffffffffffffffff1685848151811061135d5761135d613426565b602002602001015185858151811061137757611377613426565b60209081029190910101516040517fffffffff0000000000000000000000000000000000000000000000000000000060e086901b16815273ffffffffffffffffffffffffffffffffffffffff938416600482015292909116602483015260448201526064016020604051808303816000875af1925050508015611435575060408051601f3d9081017fffffffffffffffffffffffffffffffffffffffffffffffffffffffffffffffe016820190925261143291810190613516565b60015b6114d75782818151811061144b5761144b613426565b602002602001015173ffffffffffffffffffffffffffffffffffffffff168473ffffffffffffffffffffffffffffffffffffffff167fbf182be802245e8ed88e4b8d3e4344c0863dd2a70334f089fd07265389306fcf8484815181106114b3576114b3613426565b60200260200101516040516114ca91815260200190565b60405180910390a36114d9565b505b806114e381613455565b915050611303565b5050505080806114fa90613455565b9150506111dc565b506040517fa0928469930446397e17f248dffd14546197faa772d745d5ddbc3e328618183a90600090a150565b6115376117eb565b611578848484848080601f016020809104026020016040519081016040528093929190818152602001838380828437600092019190915250611a5792505050565b50505050565b606061158a60066120fb565b905090565b60007f00000000000000000000000000000000000000000000000000000000000000006040517f70a0823100000000000000000000000000000000000000000000000000000000815230600482015273ffffffffffffffffffffffffffffffffffffffff91909116906370a0823190602401602060405180830381865afa15801561161e573d6000803e3d6000fd5b505050506040513d601f19601f8201168201806040525081019061158a9190613533565b600054610100900460ff16158080156116625750600054600160ff909116105b8061167c5750303b15801561167c575060005460ff166001145b611708576040517f08c379a000000000000000000000000000000000000000000000000000000000815260206004820152602e60248201527f496e697469616c697a61626c653a20636f6e747261637420697320616c72656160448201527f647920696e697469616c697a656400000000000000000000000000000000000060648201526084016109e5565b600080547fffffffffffffffffffffffffffffffffffffffffffffffffffffffffffffff00166001179055801561176657600080547fffffffffffffffffffffffffffffffffffffffffffffffffffffffffffff00ff166101001790555b61176f82612108565b801561102e57600080547fffffffffffffffffffffffffffffffffffffffffffffffffffffffffffff00ff169055604051600181527f7f26b83ff96e1f2b6a682f133852f6798a09c465da95921460cefb38474024989060200160405180910390a15050565b606061158a60036120fb565b600061158a612098565b3373ffffffffffffffffffffffffffffffffffffffff7f000000000000000000000000000000000000000000000000000000000000000016148061185657506001546c01000000000000000000000000900473ffffffffffffffffffffffffffffffffffffffff1633145b6118bc576040517f08c379a000000000000000000000000000000000000000000000000000000000815260206004820181905260248201527f6163636f756e743a206e6f74204f776e6572206f7220456e747279506f696e7460448201526064016109e5565b565b82811461194d576040517f08c379a000000000000000000000000000000000000000000000000000000000815260206004820152602d60248201527f42656e6566696369617269657320616e642070657263656e7461676573206c6560448201527f6e677468206d69736d617463680000000000000000000000000000000000000060648201526084016109e5565b6000805b828110156119915783838281811061196b5761196b613426565b905060200201358261197d919061354c565b91508061198981613455565b915050611951565b5080606414610a95576040517f08c379a000000000000000000000000000000000000000000000000000000000815260206004820181905260248201527f546f74616c2070657263656e7461676573206d75737420657175616c2031303060448201526064016109e5565b6000610cdf8373ffffffffffffffffffffffffffffffffffffffff84166121a0565b60006106cb826121ef565b6000610cdf83836121fa565b6000610cdf8373ffffffffffffffffffffffffffffffffffffffff8416612224565b6000808473ffffffffffffffffffffffffffffffffffffffff168484604051611a809190613590565b60006040518083038185875af1925050503d8060008114611abd576040519150601f19603f3d011682016040523d82523d6000602084013e611ac2565b606091505b509150915081610a9557805160208201fd5b610c9e611fa3565b7f4910fdfa16fed3260ed0e7147f7cc6da11a60208b5b9406d12a635614ffd91435460ff1615611b1457611b0f83612317565b505050565b8273ffffffffffffffffffffffffffffffffffffffff166352d1902d6040518163ffffffff1660e01b8152600401602060405180830381865afa925050508015611b99575060408051601f3d9081017fffffffffffffffffffffffffffffffffffffffffffffffffffffffffffffffe0168201909252611b9691810190613533565b60015b611c25576040517f08c379a000000000000000000000000000000000000000000000000000000000815260206004820152602e60248201527f45524331393637557067726164653a206e657720696d706c656d656e7461746960448201527f6f6e206973206e6f74205555505300000000000000000000000000000000000060648201526084016109e5565b7f360894a13ba1a3210667c828492db98dca3e2076cc3735a920a3ca505d382bbc8114611cd4576040517f08c379a000000000000000000000000000000000000000000000000000000000815260206004820152602960248201527f45524331393637557067726164653a20756e737570706f727465642070726f7860448201527f6961626c6555554944000000000000000000000000000000000000000000000060648201526084016109e5565b50611b0f838383612421565b3373ffffffffffffffffffffffffffffffffffffffff7f000000000000000000000000000000000000000000000000000000000000000016146118bc576040517f08c379a000000000000000000000000000000000000000000000000000000000815260206004820152601c60248201527f6163636f756e743a206e6f742066726f6d20456e747279506f696e740000000060448201526064016109e5565b600080611dd9836040517f19457468657265756d205369676e6564204d6573736167653a0a3332000000006020820152603c8101829052600090605c01604051602081830303815290604052805190602001209050919050565b9050611e29611dec6101408601866134b1565b8080601f01602080910402602001604051908101604052809392919081815260200183838082843760009201919091525085939250506124469050565b6001546c01000000000000000000000000900473ffffffffffffffffffffffffffffffffffffffff908116911614611e655760019150506106cb565b5060009392505050565b600180546020830135916bffffffffffffffffffffffff909116906000611e95836135ac565b91906101000a8154816bffffffffffffffffffffffff02191690836bffffffffffffffffffffffff1602179055506bffffffffffffffffffffffff1614610c9e576040517f08c379a000000000000000000000000000000000000000000000000000000000815260206004820152601660248201527f6163636f756e743a20696e76616c6964206e6f6e63650000000000000000000060448201526064016109e5565b8015610c9e5760405160009033907fffffffffffffffffffffffffffffffffffffffffffffffffffffffffffffffff90849084818181858888f193505050503d8060008114610a95576040519150601f19603f3d011682016040523d82523d6000602084013e610a95565b6001546c01000000000000000000000000900473ffffffffffffffffffffffffffffffffffffffff16331480611fd857503330145b6118bc576040517f08c379a000000000000000000000000000000000000000000000000000000000815260206004820152600a60248201527f6f6e6c79206f776e65720000000000000000000000000000000000000000000060448201526064016109e5565b73ffffffffffffffffffffffffffffffffffffffff811660009081526001830160205260408120541515610cdf565b60006120908473ffffffffffffffffffffffffffffffffffffffff85168461246a565b949350505050565b600080805b6120a760066120f1565b8110156120e6576120c16120bc600683611a29565b612487565b156120d457816120d081613455565b9250505b806120de81613455565b91505061209d565b50600b541115919050565b60006106cb825490565b60606000610cdf8361249c565b600180546bffffffffffffffffffffffff166c0100000000000000000000000073ffffffffffffffffffffffffffffffffffffffff8481168202929092179283905560405192048116917f0000000000000000000000000000000000000000000000000000000000000000909116907f47e55c76e7a6f1fd8996a1da8008c1ea29699cca35e7bcd057f2dec313b6e5de90600090a350565b60008181526001830160205260408120546121e7575081546001818101845560008481526020808220909301849055845484825282860190935260409020919091556106cb565b5060006106cb565b60006106cb826120f1565b600082600001828154811061221157612211613426565b9060005260206000200154905092915050565b6000818152600183016020526040812054801561230d5760006122486001836135d7565b855490915060009061225c906001906135d7565b90508181146122c157600086600001828154811061227c5761227c613426565b906000526020600020015490508087600001848154811061229f5761229f613426565b6000918252602080832090910192909255918252600188019052604090208390555b85548690806122d2576122d26135ee565b6001900381819060005260206000200160009055905585600101600086815260200190815260200160002060009055600193505050506106cb565b60009150506106cb565b73ffffffffffffffffffffffffffffffffffffffff81163b6123bb576040517f08c379a000000000000000000000000000000000000000000000000000000000815260206004820152602d60248201527f455243313936373a206e657720696d706c656d656e746174696f6e206973206e60448201527f6f74206120636f6e74726163740000000000000000000000000000000000000060648201526084016109e5565b7f360894a13ba1a3210667c828492db98dca3e2076cc3735a920a3ca505d382bbc80547fffffffffffffffffffffffff00000000000000000000000000000000000000001673ffffffffffffffffffffffffffffffffffffffff92909216919091179055565b61242a836124f8565b6000825111806124375750805b15611b0f576115788383612545565b6000806000612455858561256a565b91509150612462816125af565b509392505050565b600082815260028401602052604081208290556120908484612762565b60008061249560088461276e565b1192915050565b6060816000018054806020026020016040519081016040528092919081815260200182805480156124ec57602002820191906000526020600020905b8154815260200190600101908083116124d8575b50505050509050919050565b61250181612317565b60405173ffffffffffffffffffffffffffffffffffffffff8216907fbc7cd75a20ee27fd9adebab32041f755214dbc6bffa90cc0225b39da2e5c2d3b90600090a250565b6060610cdf838360405180606001604052806027815260200161369e60279139612790565b60008082516041036125a05760208301516040840151606085015160001a61259487828585612815565b945094505050506125a8565b506000905060025b9250929050565b60008160048111156125c3576125c361361d565b036125cb5750565b60018160048111156125df576125df61361d565b03612646576040517f08c379a000000000000000000000000000000000000000000000000000000000815260206004820152601860248201527f45434453413a20696e76616c6964207369676e6174757265000000000000000060448201526064016109e5565b600281600481111561265a5761265a61361d565b036126c1576040517f08c379a000000000000000000000000000000000000000000000000000000000815260206004820152601f60248201527f45434453413a20696e76616c6964207369676e6174757265206c656e6774680060448201526064016109e5565b60038160048111156126d5576126d561361d565b03610c9e576040517f08c379a000000000000000000000000000000000000000000000000000000000815260206004820152602260248201527f45434453413a20696e76616c6964207369676e6174757265202773272076616c60448201527f756500000000000000000000000000000000000000000000000000000000000060648201526084016109e5565b6000610cdf83836121a0565b6000610cdf8373ffffffffffffffffffffffffffffffffffffffff8416612904565b60606000808573ffffffffffffffffffffffffffffffffffffffff16856040516127ba9190613590565b600060405180830381855af49150503d80600081146127f5576040519150601f19603f3d011682016040523d82523d6000602084013e6127fa565b606091505b509150915061280b8683838761298e565b9695505050505050565b6000807f7fffffffffffffffffffffffffffffff5d576e7357a4501ddfe92f46681b20a083111561284c57506000905060036128fb565b6040805160008082526020820180845289905260ff881692820192909252606081018690526080810185905260019060a0016020604051602081039080840390855afa1580156128a0573d6000803e3d6000fd5b50506040517fffffffffffffffffffffffffffffffffffffffffffffffffffffffffffffffe0015191505073ffffffffffffffffffffffffffffffffffffffff81166128f4576000600192509250506128fb565b9150600090505b94509492505050565b60008181526002830160205260408120548015158061292857506129288484612a2e565b610cdf576040517f08c379a000000000000000000000000000000000000000000000000000000000815260206004820152601e60248201527f456e756d657261626c654d61703a206e6f6e6578697374656e74206b6579000060448201526064016109e5565b60608315612a24578251600003612a1d5773ffffffffffffffffffffffffffffffffffffffff85163b612a1d576040517f08c379a000000000000000000000000000000000000000000000000000000000815260206004820152601d60248201527f416464726573733a2063616c6c20746f206e6f6e2d636f6e747261637400000060448201526064016109e5565b5081612090565b6120908383612a3a565b6000610cdf8383612a7e565b815115612a4a5781518083602001fd5b806040517f08c379a00000000000000000000000000000000000000000000000000000000081526004016109e5919061364c565b60008181526001830160205260408120541515610cdf565b828054828255906000526020600020908101928215612b0e579160200282015b82811115612b0e5781547fffffffffffffffffffffffff00000000000000000000000000000000000000001673ffffffffffffffffffffffffffffffffffffffff843516178255602090920191600190910190612ab6565b50612b1a929150612b59565b5090565b828054828255906000526020600020908101928215612b0e579160200282015b82811115612b0e578235825591602001919060010190612b3e565b5b80821115612b1a5760008155600101612b5a565b73ffffffffffffffffffffffffffffffffffffffff81168114610c9e57600080fd5b60008083601f840112612ba257600080fd5b50813567ffffffffffffffff811115612bba57600080fd5b6020830191508360208285010111156125a857600080fd5b60008060008060008060008060c0898b031215612bee57600080fd5b8835612bf981612b6e565b97506020890135612c0981612b6e565b96506040890135612c1981612b6e565b955060608901359450608089013567ffffffffffffffff80821115612c3d57600080fd5b612c498c838d01612b90565b909650945060a08b0135915080821115612c6257600080fd5b50612c6f8b828c01612b90565b999c989b5096995094979396929594505050565b600060208284031215612c9557600080fd5b81357fffffffff0000000000000000000000000000000000000000000000000000000081168114610cdf57600080fd5b60008083601f840112612cd757600080fd5b50813567ffffffffffffffff811115612cef57600080fd5b6020830191508360208260051b85010111156125a857600080fd5b600080600080600060608688031215612d2257600080fd5b8535612d2d81612b6e565b9450602086013567ffffffffffffffff80821115612d4a57600080fd5b612d5689838a01612cc5565b90965094506040880135915080821115612d6f57600080fd5b50612d7c88828901612cc5565b969995985093965092949392505050565b600060208284031215612d9f57600080fd5b8135610cdf81612b6e565b6020808252825160408383015280516060840181905260009291820190839060808601905b80831015612e0557835173ffffffffffffffffffffffffffffffffffffffff168252928401926001929092019190840190612dcf565b50868401518682037fffffffffffffffffffffffffffffffffffffffffffffffffffffffffffffffe00160408801528051808352908501935090840191506000905b80821015612e675783518352928401929184019160019190910190612e47565b50909695505050505050565b600080600080600060808688031215612e8b57600080fd5b8535612e9681612b6e565b94506020860135612ea681612b6e565b935060408601359250606086013567ffffffffffffffff811115612ec957600080fd5b612d7c88828901612b90565b600080600060408486031215612eea57600080fd5b833567ffffffffffffffff811115612f0157600080fd5b612f0d86828701612cc5565b909790965060209590950135949350505050565b60008060008060408587031215612f3757600080fd5b843567ffffffffffffffff80821115612f4f57600080fd5b612f5b88838901612cc5565b90965094506020870135915080821115612f7457600080fd5b50612f8187828801612cc5565b95989497509550505050565b600080600060608486031215612fa257600080fd5b833567ffffffffffffffff811115612fb957600080fd5b84016101608187031215612fcc57600080fd5b95602085013595506040909401359392505050565b60008060408385031215612ff457600080fd5b8235612fff81612b6e565b946020939093013593505050565b7f4e487b7100000000000000000000000000000000000000000000000000000000600052604160045260246000fd5b6000806040838503121561304f57600080fd5b823561305a81612b6e565b9150602083013567ffffffffffffffff8082111561307757600080fd5b818501915085601f83011261308b57600080fd5b81358181111561309d5761309d61300d565b604051601f82017fffffffffffffffffffffffffffffffffffffffffffffffffffffffffffffffe0908116603f011681019083821181831017156130e3576130e361300d565b816040528281528860208487010111156130fc57600080fd5b8260208601602083013760006020848301015280955050505050509250929050565b8015158114610c9e57600080fd5b60006020828403121561313e57600080fd5b8135610cdf8161311e565b6000806000806060858703121561315f57600080fd5b843561316a81612b6e565b935060208501359250604085013567ffffffffffffffff81111561318d57600080fd5b612f8187828801612b90565b6020808252825182820181905260009190848201906040850190845b81811015612e6757835173ffffffffffffffffffffffffffffffffffffffff16835292840192918401916001016131b5565b60008060008060008060008060a0898b03121561320357600080fd5b883561320e81612b6e565b9750602089013561321e81612b6e565b9650604089013567ffffffffffffffff8082111561323b57600080fd5b6132478c838d01612cc5565b909850965060608b013591508082111561326057600080fd5b61326c8c838d01612cc5565b909650945060808b0135915080821115612c6257600080fd5b60008060008060008060a0878903121561329e57600080fd5b86356132a981612b6e565b955060208701356132b981612b6e565b94506040870135935060608701359250608087013567ffffffffffffffff8111156132e357600080fd5b6132ef89828a01612b90565b979a9699509497509295939492505050565b8183526000602080850194508260005b8581101561334c57813561332481612b6e565b73ffffffffffffffffffffffffffffffffffffffff1687529582019590820190600101613311565b509495945050505050565b60408152600061336b604083018688613301565b82810360208401528381527f07ffffffffffffffffffffffffffffffffffffffffffffffffffffffffffffff8411156133a357600080fd5b8360051b80866020840137600091016020019081529695505050505050565b7f4e487b7100000000000000000000000000000000000000000000000000000000600052601160045260246000fd5b600081613400576134006133c2565b507fffffffffffffffffffffffffffffffffffffffffffffffffffffffffffffffff0190565b7f4e487b7100000000000000000000000000000000000000000000000000000000600052603260045260246000fd5b60007fffffffffffffffffffffffffffffffffffffffffffffffffffffffffffffffff8203613486576134866133c2565b5060010190565b6040815260006134a1604083018587613301565b9050826020830152949350505050565b60008083357fffffffffffffffffffffffffffffffffffffffffffffffffffffffffffffffe18436030181126134e657600080fd5b83018035915067ffffffffffffffff82111561350157600080fd5b6020019150368190038213156125a857600080fd5b60006020828403121561352857600080fd5b8151610cdf8161311e565b60006020828403121561354557600080fd5b5051919050565b6000821982111561355f5761355f6133c2565b500190565b60005b8381101561357f578181015183820152602001613567565b838111156115785750506000910152565b600082516135a2818460208701613564565b9190910192915050565b60006bffffffffffffffffffffffff8083168181036135cd576135cd6133c2565b6001019392505050565b6000828210156135e9576135e96133c2565b500390565b7f4e487b7100000000000000000000000000000000000000000000000000000000600052603160045260246000fd5b7f4e487b7100000000000000000000000000000000000000000000000000000000600052602160045260246000fd5b602081526000825180602084015261366b816040850160208701613564565b601f017fffffffffffffffffffffffffffffffffffffffffffffffffffffffffffffffe016919091016040019291505056fe416464726573733a206c6f772d6c6576656c2064656c65676174652063616c6c206661696c6564a26469706673582212204c84c256bc683172249618ac141ac923f31d2aef55dd20b7834eb6d2650c096164736f6c634300080f0033",
  "linkReferences": {},
  "deployedLinkReferences": {}
}